{
  "contractName": "Notary",
  "abi": [
    {
      "constant": true,
      "inputs": [
        {
          "name": "",
          "type": "bytes32"
        }
      ],
      "name": "myMapping",
      "outputs": [
        {
          "name": "fileName",
          "type": "string"
        },
        {
          "name": "timestamp",
          "type": "uint256"
        },
        {
          "name": "checkSum",
          "type": "bytes32"
        },
        {
          "name": "comments",
          "type": "string"
        },
        {
          "name": "isSet",
          "type": "bool"
        },
        {
          "name": "setBy",
          "type": "address"
        }
      ],
      "payable": false,
      "stateMutability": "view",
      "type": "function"
    },
    {
      "anonymous": false,
      "inputs": [
        {
          "indexed": false,
          "name": "_checksum",
          "type": "bytes32"
        },
        {
          "indexed": false,
          "name": "_filename",
          "type": "string"
        },
        {
          "indexed": true,
          "name": "_setBy",
          "type": "address"
        }
      ],
      "name": "NewEntry",
      "type": "event"
    },
    {
      "constant": false,
      "inputs": [
        {
          "name": "_checksum",
          "type": "bytes32"
        },
        {
          "name": "_fileName",
          "type": "string"
        },
        {
          "name": "_comments",
          "type": "string"
        }
      ],
      "name": "addEntry",
      "outputs": [],
      "payable": false,
      "stateMutability": "nonpayable",
      "type": "function"
    },
    {
      "constant": true,
      "inputs": [
        {
          "name": "_checksum",
          "type": "bytes32"
        }
      ],
      "name": "entrySet",
      "outputs": [
        {
          "name": "",
          "type": "string"
        },
        {
          "name": "",
          "type": "uint256"
        },
        {
          "name": "",
          "type": "string"
        },
        {
          "name": "",
          "type": "address"
        }
      ],
      "payable": false,
      "stateMutability": "view",
      "type": "function"
    }
  ],
  "bytecode": "0x608060405234801561001057600080fd5b50610a6f806100206000396000f300608060405260043610610057576000357c0100000000000000000000000000000000000000000000000000000000900463ffffffff1680630414be801461005c5780637f589519146101ac578063bba8b63014610269575b600080fd5b34801561006857600080fd5b5061008b60048036038101908080356000191690602001909291905050506103d3565b6040518080602001858152602001806020018473ffffffffffffffffffffffffffffffffffffffff1673ffffffffffffffffffffffffffffffffffffffff168152602001838103835287818151815260200191508051906020019080838360005b838110156101075780820151818401526020810190506100ec565b50505050905090810190601f1680156101345780820380516001836020036101000a031916815260200191505b50838103825285818151815260200191508051906020019080838360005b8381101561016d578082015181840152602081019050610152565b50505050905090810190601f16801561019a5780820380516001836020036101000a031916815260200191505b50965050505050505060405180910390f35b3480156101b857600080fd5b506102676004803603810190808035600019169060200190929190803590602001908201803590602001908080601f0160208091040260200160405190810160405280939291908181526020018383808284378201915050505050509192919290803590602001908201803590602001908080601f01602080910402602001604051908101604052809392919081815260200183838082843782019150505050505091929192905050506105ee565b005b34801561027557600080fd5b506102986004803603810190808035600019169060200190929190505050610805565b6040518080602001878152602001866000191660001916815260200180602001851515151581526020018473ffffffffffffffffffffffffffffffffffffffff1673ffffffffffffffffffffffffffffffffffffffff168152602001838103835289818151815260200191508051906020019080838360005b8381101561032c578082015181840152602081019050610311565b50505050905090810190601f1680156103595780820380516001836020036101000a031916815260200191505b50838103825286818151815260200191508051906020019080838360005b83811015610392578082015181840152602081019050610377565b50505050905090810190601f1680156103bf5780820380516001836020036101000a031916815260200191505b509850505050505050505060405180910390f35b6060600060606000806000866000191660001916815260200190815260200160002060040160009054906101000a900460ff16151561041157600080fd5b60008086600019166000191681526020019081526020016000206000016000808760001916600019168152602001908152602001600020600101546000808860001916600019168152602001908152602001600020600301600080896000191660001916815260200190815260200160002060040160019054906101000a900473ffffffffffffffffffffffffffffffffffffffff16838054600181600116156101000203166002900480601f01602080910402602001604051908101604052809291908181526020018280546001816001161561010002031660029004801561053c5780601f106105115761010080835404028352916020019161053c565b820191906000526020600020905b81548152906001019060200180831161051f57829003601f168201915b50505050509350818054600181600116156101000203166002900480601f0160208091040260200160405190810160405280929190818152602001828054600181600116156101000203166002900480156105d85780601f106105ad576101008083540402835291602001916105d8565b820191906000526020600020905b8154815290600101906020018083116105bb57829003601f168201915b5050505050915093509350935093509193509193565b600080846000191660001916815260200190815260200160002060040160009054906101000a900460ff1615151561062557600080fd5b6001600080856000191660001916815260200190815260200160002060040160006101000a81548160ff021916908315150217905550816000808560001916600019168152602001908152602001600020600001908051906020019061068c92919061099e565b504260008085600019166000191681526020019081526020016000206001018190555080600080856000191660001916815260200190815260200160002060030190805190602001906106e092919061099e565b5033600080856000191660001916815260200190815260200160002060040160016101000a81548173ffffffffffffffffffffffffffffffffffffffff021916908373ffffffffffffffffffffffffffffffffffffffff1602179055503373ffffffffffffffffffffffffffffffffffffffff167f8894500778b4a5e556f0cae0842471eedc99b8a9df64046634b8a3bb3ae42102848460405180836000191660001916815260200180602001828103825283818151815260200191508051906020019080838360005b838110156107c55780820151818401526020810190506107aa565b50505050905090810190601f1680156107f25780820380516001836020036101000a031916815260200191505b50935050505060405180910390a2505050565b6000602052806000526040600020600091509050806000018054600181600116156101000203166002900480601f0160208091040260200160405190810160405280929190818152602001828054600181600116156101000203166002900480156108b15780601f10610886576101008083540402835291602001916108b1565b820191906000526020600020905b81548152906001019060200180831161089457829003601f168201915b505050505090806001015490806002015490806003018054600181600116156101000203166002900480601f01602080910402602001604051908101604052809291908181526020018280546001816001161561010002031660029004801561095b5780601f106109305761010080835404028352916020019161095b565b820191906000526020600020905b81548152906001019060200180831161093e57829003601f168201915b5050505050908060040160009054906101000a900460ff16908060040160019054906101000a900473ffffffffffffffffffffffffffffffffffffffff16905086565b828054600181600116156101000203166002900490600052602060002090601f016020900481019282601f106109df57805160ff1916838001178555610a0d565b82800160010185558215610a0d579182015b82811115610a0c5782518255916020019190600101906109f1565b5b509050610a1a9190610a1e565b5090565b610a4091905b80821115610a3c576000816000905550600101610a24565b5090565b905600a165627a7a723058208094d1967305f6ce10686d2a8ccdc030b6db2c2f9c20a8d4b9f422d683b68ab70029",
  "source": "pragma solidity ^0.4.24;\r\n\r\ncontract Notary {\r\n\r\n    struct MyNotaryEntry {\r\n        string fileName;\r\n        uint timestamp;\r\n        bytes32 checkSum;\r\n        string comments;\r\n        bool isSet;\r\n        address setBy;\r\n    }\r\n\r\n    mapping (bytes32 => MyNotaryEntry) public myMapping;\r\n\r\n    event NewEntry(bytes32 _checksum, string _filename, address indexed _setBy);\r\n\r\n    /**\r\n     * Example: 0x193C167E2B336B32356F17009C923C4CD33AC8E3F62BAD1384E8A049F77FD295, \"test\", \"test\"\r\n     * */\r\n    function addEntry(bytes32 _checksum, string _fileName, string _comments) public {\r\n        require(!myMapping[_checksum].isSet);\r\n\r\n        myMapping[_checksum].isSet = true;\r\n        myMapping[_checksum].fileName = _fileName;\r\n        myMapping[_checksum].timestamp = now;\r\n        myMapping[_checksum].comments = _comments;\r\n        myMapping[_checksum].setBy = msg.sender;\r\n\r\n        emit NewEntry(_checksum, _fileName, msg.sender);\r\n    }\r\n\r\n\r\n    function entrySet(bytes32 _checksum) public view returns(string, uint, string, address) {\r\n        require(myMapping[_checksum].isSet);\r\n        return (myMapping[_checksum].fileName, myMapping[_checksum].timestamp, myMapping[_checksum].comments, myMapping[_checksum].setBy);\r\n    }\r\n\r\n\r\n}\r\n",
  "sourcePath": "D:\\tmp\\c7_webpack\\contracts\\Notary.sol",
  "compiler": {
    "name": "solc",
    "version": "0.4.24+commit.e67f0147.Emscripten.clang"
  },
  "schemaVersion": "2.0.1",
  "updatedAt": "2018-07-28T12:19:33.874Z"
}